:100000000C945E000C9486000C9486000C94860080
:100010000C9486000C9486000C9486000C94860048
:100020000C9486000C9486000C9486000C945C055D
:100030000C9486000C9486000C9486000C94860028
:100040000C94BA040C9486000C942A050C940405B4
:100050000C9486000C9486000C9486000C94860008
:100060000C9486000C948600000000080002010039
:100070000003040700000000000000000000000072
:10008000250028002B0000000000240027002A0083
:10009000040404040404040402020202020203032E
:1000A0000303030301020408102040800102040836
:1000B00010200102040810201D06BC0811241FBED8
:1000C000CFEFD8E0DEBFCDBF11E0A0E0B1E0E0E0CF
:1000D000F7E102C005900D92A036B107D9F722E0F2
:1000E000A0E6B1E001C01D92A435B207E1F710E02F
:1000F000CDE5D0E004C02197FE010E946809CC350F
:10010000D107C9F70E94D1060C94730B0C94000020
:1001100090E0FC01EC55FF4F2491FC01E057FF4FAC
:100120008491882399F090E0880F991FFC01EA5789
:10013000FF4FA591B491FC01E458FF4F8591949134
:100140008FB7F894EC91E22BEC938FBF089590E079
:10015000FC01E859FF4F2491FC01EC55FF4F34910D
:10016000FC01E057FF4FE491EE2309F43CC0222349
:1001700039F1233091F038F42130A9F0223001F523
:1001800084B58F7D12C0273091F02830A1F0243043
:10019000B9F4809180008F7D03C0809180008F77BB
:1001A000809380000DC084B58F7784BD09C0809195
:1001B000B0008F7703C08091B0008F7D8093B00036
:1001C000F0E0EE0FFF1FE458FF4FA591B4919FB7E9
:1001D000F894611104C08C913095382302C0EC91E1
:1001E0003E2B3C939FBF08953FB7F89480916601E2
:1001F00090916701A0916801B091690126B5A89B13
:1002000005C02F3F19F00196A11DB11D3FBFBA2FA8
:10021000A92F982F8827820F911DA11DB11DBC0108
:10022000CD0142E0660F771F881F991F4A95D1F7CD
:1002300008958F929F92AF92BF92CF92DF92EF92EA
:10024000FF926B017C010E94F4004B015C01C11420
:10025000D104E104F104F1F00E94F400DC01CB01CF
:1002600088199909AA09BB09883E9340A105B105DF
:1002700070F321E0C21AD108E108F10888EE880E77
:1002800083E0981EA11CB11CC114D104E104F10447
:1002900019F7DDCFFF90EF90DF90CF90BF90AF9038
:1002A0009F908F900895CF92DF92EF92FF920F93DD
:1002B0001F93CF93DF936C017A018B01C0E0D0E0F4
:1002C000CE15DF0581F0D8016D918D01D601ED913C
:1002D000FC910190F081E02DC6010995892B11F068
:1002E0002196EECF7E01C701DF91CF911F910F9133
:1002F000FF90EF90DF90CF900895FC01538D448DD7
:10030000252F30E0842F90E0821B930B541710F0C0
:10031000CF96089501970895FC01918D828D9817CD
:1003200061F0828DDF01A80FB11D5D968C91928DD9
:100330009F5F9F73928F90E008958FEF9FEF0895D6
:10034000FC01918D828D981731F0828DE80FF11D9F
:10035000858D90E008958FEF9FEF0895FC01918DBA
:10036000228D892F90E0805C9F4F821B91098F73B3
:10037000992708958AE691E00E94AE0121E0892B39
:1003800009F420E0822F0895FC01848DDF01A80F7D
:10039000B11DA35ABF4F2C91848D90E001968F73AD
:1003A0009927848FA689B7892C93A089B1898C91CC
:1003B000837080648C93938D848D981306C002881B
:1003C000F389E02D80818F7D80830895EF92FF92E5
:1003D0000F931F93CF93DF93EC0181E0888F9B8D68
:1003E0008C8D981305C0E889F989808185FD26C028
:1003F000F62E0B8D10E00F5F1F4F0F731127E02EAD
:100400008C8DE8120CC00FB607FCFACFE889F98989
:10041000808185FFF5CFCE010E94C401F1CF8B8D85
:10042000FE01E80FF11DE35AFF4FF0829FB7F894E9
:100430000B8FEA89FB89808180620AC09FB7F8949C
:10044000EE89FF896083E889F989808183708064FF
:1004500080839FBF81E090E0DF91CF911F910F914A
:10046000FF90EF900895CF93DF93EC01888D882360
:10047000C9F0EA89FB89808185FD05C0A889B98911
:100480008C9186FD0FC00FB607FCF5CF808185FFEC
:10049000F2CFA889B9898C9185FFEDCFCE010E945A
:1004A000C401E7CFDF91CF91089580E090E0892BE0
:1004B00029F00E94BA0181110C9400000895CF9395
:1004C000DF93EC0160E08E810E94A70061E08E81E5
:1004D0000E94A70060E08E810E94A7008BE891E057
:1004E0000197F1F7DF91CF910895CF92DF92EF92CC
:1004F000FF920F931F93CF93DF936C017C0187E0F2
:10050000E80EF11CC0E0D0E0062F10E0B8010C2E80
:1005100002C0759567950A94E2F76170F7018191C1
:100520007F010E94A7002196C430D10579F7C6014A
:10053000DF91CF911F910F91FF90EF90DF90CF90BF
:100540000C945F02CF92DF92EF92FF920F931F9372
:10055000CF93DF93EC01F62E642F8C810E94A700CD
:100560008D818F3F19F060E00E94A7008F850F2DCD
:1005700010E084FF25C06E0187E0C80ED11CE12C7D
:10058000F12CB8010E2C02C0759567950A94E2F71C
:100590006170F60181916F010E94A700FFEFEF1AD1
:1005A000FF0A88E0E816F10461F7CE01DF91CF91F0
:1005B0001F910F91FF90EF90DF90CF900C945F020E
:1005C000B80184E0759567958A95E1F7CE010E94A0
:1005D00075026F2DCE01DF91CF911F910F91FF908A
:1005E000EF90DF90CF900C94750240E0682F8CE282
:1005F00092E00C94A20281E00E94F5028BE39FE15D
:100600000197F1F70895CF93DF93823028F090910E
:100610003B02986090933B0280933F02109240020D
:1006200080E48093410280E18093420280E58093E0
:100630004302809130020E948800809131028F3FF6
:1006400011F00E948800809132020E948800CCE262
:10065000D2E09E012C52324080913B0284FD03C0C7
:1006600084E090E002C088E090E0219628173907E6
:1006700024F48E810E948800ECCF8BE39DE00197EB
:10068000F1F760E0809130020E94A70060E0809165
:1006900032020E94A700809131028F3F19F060E082
:1006A0000E94A70080913B0284FD20C063E08CE2A1
:1006B00092E00E947502CBE4D6E4CE010197F1F7F7
:1006C00063E08CE292E00E9475022197F1F763E00B
:1006D0008CE292E00E94750283E592E00197F1F7C7
:1006E00062E08CE292E00E94750215C080620E9476
:1006F000F5028BE496E40197F1F780913B0280626A
:100700000E94F50283E592E00197F1F780913B02A8
:1007100080620E94F50280913B0280620E94F50295
:1007200084E080933C028CE00E94F5020E94FB0270
:1007300082E080933D0286E0DF91CF910C94F50238
:10074000E0913F02E23010F4E15001C0E1E0F0E05E
:10075000E45DFD4F848980680C94F50241E00E94BD
:10076000A20281E090E00895089580E090E008956D
:10077000CF92DF92EF92FF92CF93DF93EC01603242
:1007800082E078070CF03DC077FD06C0653B71053F
:100790002CF064EB70E002C060E070E0898128E832
:1007A00030E06901C81AD10887FDD394CC0CDD1C58
:1007B000CC0CDD1C0D2C000CEE08FF088A8128E50E
:1007C00032E0281B310987FD3395220F331F220F9A
:1007D000331FC901330FAA0BBB0B9C01AD012C19B0
:1007E0003D094E095F09DB010E94EC0824EB30E073
:1007F00040E050E00E94C208C20ED31EE41EF51E67
:10080000B60138813C3080F5298188E890E0821B70
:10081000910927FD9395880F991F880F991F6817D5
:10082000790784F08A8148E552E0481B510987FD29
:100830005395440F551F440F551FCB0146175707BB
:100840000CF4CA010297880F991F4FB7F894232F11
:1008500030E0F901EE0FFF1F2E0F3F1FF901E95F96
:10086000FD4F928381834FBFDF91CF91FF90EF9037
:10087000DF90CF900895892B79F41092800082E068
:10088000809381001092850010928400B19A80912B
:100890006F00826080936F000895009769F0FC01FB
:1008A00001900020E9F73197AF01481B590BBC01BB
:1008B0008CE292E00C94530180E090E00895CF9395
:1008C000DF93EC0180914A0290914B02009739F03E
:1008D00020914C0230914D022C173D07B8F4BE0117
:1008E0006F5F7F4F0E948F0A009791F090934B02A9
:1008F00080934A02D0934D02C0934C0220914E0245
:1009000030914F02232B11F4FC01108281E001C0D1
:1009100080E0DF91CF910895CF93DF93EC010E94A7
:100920005F0420914A0230914B02811113C02115BE
:10093000310519F0C9010E94060A10924B0210926B
:100940004A0210924F0210924E0210924D021092E3
:100950004C0209C0D0934F02C0934E026FE571E084
:10096000C9010E946C0B8AE492E0DF91CF91089557
:100970000E94550B1F920F920FB60F9211242F93C6
:100980003F938F939F93AF93BF9380916201909118
:100990006301A0916401B09165013091610123E090
:1009A000230F2D3720F40196A11DB11D05C026E8A7
:1009B000230F0296A11DB11D209361018093620156
:1009C00090936301A0936401B093650180916601E7
:1009D00090916701A0916801B09169010196A11DF4
:1009E000B11D8093660190936701A0936801B09355
:1009F0006901BF91AF919F918F913F912F910F907E
:100A00000FBE0F901F9018951F920F920FB60F9266
:100A100011242F933F934F935F936F937F938F9303
:100A20009F93AF93BF93EF93FF938AE691E00E9469
:100A3000C401FF91EF91BF91AF919F918F917F91F1
:100A40006F915F914F913F912F910F900FBE0F903B
:100A50001F9018951F920F920FB60F9211242F938B
:100A60008F939F93EF93FF93E0917A01F0917B0135
:100A70008081E0918001F091810182FD12C090811E
:100A8000809183018F5F8F7320918401821751F0D1
:100A9000E0918301F0E0E659FE4F958F809383014A
:100AA00001C08081FF91EF919F918F912F910F90C5
:100AB0000FBE0F901F9018951F920F920FB60F92B6
:100AC00011242F933F934F935F936F937F938F9353
:100AD0009F93AF93BF93EF93FF938091600187FF44
:100AE00005C010928500109284001BC02091600107
:100AF000022E000C330B80912B0290E0281739074F
:100B000084F480916001082E000C990BFC01EE0F1B
:100B1000FF1F8E0F9F1FFC01E95FFD4F808186FD47
:100B200015C0809160018F5F80936001209160010A
:100B3000022E000C330B80912B0290E0281739070E
:100B4000C4F4809160018C3064F113C08091600125
:100B5000082E000C990BFC01EE0FFF1F8E0F9F1F3C
:100B6000FC01E95FFD4F808160E08F730E94A70068
:100B7000D8CF8091840090918500049680349C4960
:100B800018F480E49CE905C0809184009091850070
:100B9000049690938900809388008FEF8093600182
:100BA0003BC0209184003091850080916001082E27
:100BB000000C990BFC01EE0FFF1F8E0F9F1FFC0115
:100BC000E95FFD4F81819281820F931F909389008D
:100BD0008093880080916001082E000C990BFC0125
:100BE000EE0FFF1F8E0F9F1FFC01E95FFD4F8081FD
:100BF00086FF12C080916001082E000C990BFC0149
:100C0000EE0FFF1F8E0F9F1FFC01E95FFD4F8081DC
:100C100061E08F730E94A700FF91EF91BF91AF91A8
:100C20009F918F917F916F915F914F913F912F9104
:100C30000F900FBE0F901F90189510926D0110929B
:100C40006C0188EE93E0A0E0B0E080936E01909399
:100C50006F01A0937001B09371018AE091E09093CD
:100C60006B0180936A0185EC90E09093770180930B
:100C7000760184EC90E0909379018093780180EC88
:100C800090E090937B0180937A0181EC90E09093C7
:100C90007D0180937C0182EC90E090937F018093B2
:100CA0007E0186EC90E09093810180938001109208
:100CB0008301109284011092850110928601109296
:100CC0004B0210924A0210924D0210924C02109266
:100CD0004F0210924E0280E090E00E948C048091BE
:100CE0002B028C30A0F491E0980F90932B0280930C
:100CF000470290E0FC01EE0FFF1F8E0F9F1FFC01CB
:100D0000E95FFD4F88EB9BE09283818303C08FEF07
:100D10008093470280912B028C30A0F491E0980FD1
:100D200090932B028093440290E0FC01EE0FFF1F92
:100D30008E0F9F1FFC01E95FFD4F88EB9BE09283C4
:100D4000818303C08FEF8093440210922F02109290
:100D50002E028CE191E090932D0280932C0287E08B
:100D6000809330028FEF8093310286E080933202CD
:100D700085E08093330284E08093340283E08093A3
:100D8000350282E0809336021092370210923802C8
:100D90001092390210923A0210923B0281E00C94B8
:100DA0000303CF93DF9300D0CDB7DEB7789484B53B
:100DB000826084BD84B5816084BD85B5826085BD57
:100DC00085B5816085BD80916E00816080936E00E5
:100DD00010928100809181008260809381008091D7
:100DE0008100816080938100809180008160809388
:100DF00080008091B10084608093B1008091B00048
:100E000081608093B00080917A00846080937A0042
:100E100080917A00826080937A0080917A0081606C
:100E200080937A0080917A00806880937A00109293
:100E3000C1008DE00E9488008AE00E9488008091B5
:100E400047028C3008F042C08CE00E9488008091FC
:100E50004702E82FF0E09F01220F331FE20FF31F3C
:100E6000E95FFD4F9081907C9C60908310924802D6
:100E7000109249026CE00E945C0990E02CE0829F95
:100E8000B001112440E050E09B01240F351FF9010F
:100E9000EE0FFF1F2E0F3F1FF901E95FFD4F20816D
:100EA00026FD07C04F5F5F4F4C30510569F70E9428
:100EB0003B04E0914702F0E0CF01880F991FE80F53
:100EC000F91FE95FFD4F8081806480838091440237
:100ED0008C3008F042C08BE00E9488008091440270
:100EE000E82FF0E09F01220F331FE20FF31FE95FAD
:100EF000FD4F9081907C9B609083109245021092F0
:100F000046026CE00E945C0990E02CE0829FB001F8
:100F1000112440E050E09B01240F351FF901EE0F32
:100F2000FF1F2E0F3F1FF901E95FFD4F208126FDB6
:100F300007C04F5F5F4F4C30510569F70E943B047B
:100F4000E0914402F0E0CF01880F991FE80FF91FEC
:100F5000E95FFD4F80818064808382E00E9403030B
:100F600084E291E00E944D04E0917A01F0917B01CE
:100F700082E08083E0917601F09177011082E09128
:100F80007801F09179018FEC808310928201E091D9
:100F90007E01F0917F0186E08083E0917C01F091F9
:100FA0007D01808180618083E0917C01F0917D01F1
:100FB000808188608083E0917C01F0917D01808157
:100FC00080688083E0917C01F0917D0180818F7D3C
:100FD000808360E070E087E492E00E94B80360E004
:100FE00070E084E492E00E94B8038AE691E00E94F7
:100FF000AE01892B59F16AE070E080E090E00E9438
:1010000019018AE691E00E948C0189831A8200917D
:101010004E0210914F020F5F1F4FC8010E945F04E4
:10102000882319F320914A0230914B0280914E029D
:1010300090914F02BE016F5F7F4F820F931F0E94FE
:101040006C0B10934F0200934E02CFCF80914E0253
:1010500090914F02892B09F48CC06DE271E0809170
:101060004A0290914B020E94630B892B81F561E04B
:101070008DE00E94A7000E94A0030E94FB0282E371
:1010800091E00E944D046AE570E087E492E00E94DE
:10109000B8036AE570E084E492E00E94B80360ED72
:1010A00077E080E090E00E94190160E070E087E462
:1010B00092E00E94B80360E070E084E492E00E9455
:1010C000B80360E08DE00E94A7000E94FB028091BF
:1010D0004E0290914F02892B11F162E471E08091F0
:1010E0004A0290914B020E94630B892BC1F461E08C
:1010F0008AE00E94A7000E94A0030E94FB0288E4ED
:1011000091E00E944D0468EE73E080E090E00E9460
:10111000190160E08AE00E94A7000E94FB02809112
:101120004E0290914F02892B01F167E571E08091A9
:101130004A0290914B020E94630B892BB1F461E04B
:101140008DE00E94A7000E94A0030E94FB028BE595
:1011500091E00E944D0468EE73E080E090E00E9410
:10116000190160E08DE00E94A70080E090E00E94FD
:101170008C040E9455022DCF80914A0290914B021F
:101180000C94060A052E97FB1EF400940E94D908C1
:1011900057FD07D00E942B0907FC03D04EF40C9496
:1011A000D90850954095309521953F4F4F4F5F4F4F
:1011B000089590958095709561957F4F8F4F9F4FC3
:1011C00008950E944D09A59F900DB49F900DA49F76
:1011D000800D911D11240895B7FF0C94E1080E9421
:1011E000E108821B930B08952F923F924F925F92DA
:1011F0006F927F928F929F92AF92BF92CF92DF9227
:10120000EF92FF920F931F93CF93DF93CDB7DEB78B
:10121000CA1BDB0B0FB6F894DEBF0FBECDBF09941F
:101220002A88398848885F846E847D848C849B8476
:10123000AA84B984C884DF80EE80FD800C811B8184
:10124000AA81B981CE0FD11D0FB6F894DEBF0FBEB3
:10125000CDBFED010895A1E21A2EAA1BBB1BFD0113
:101260000DC0AA1FBB1FEE1FFF1FA217B307E40785
:10127000F50720F0A21BB30BE40BF50B661F771FDD
:10128000881F991F1A9469F76095709580959095BD
:101290009B01AC01BD01CF010895A29FB001B39F96
:1012A000C001A39F700D811D1124911DB29F700D6F
:1012B000811D1124911D0895991B79E004C0991F87
:1012C000961708F0961B881F7A95C9F780950895A0
:1012D000EE0FFF1F0590F491E02D09940F931F93DB
:1012E000CF93DF938230910510F482E090E0E0919B
:1012F0005202F091530220E030E0A0E0B0E03097DD
:1013000019F1408151810281138148175907C8F0B2
:101310008417950769F4109731F012960C93129781
:1013200013961C9327C0009352021093530222C0BD
:101330002115310519F04217530718F49A01BD0120
:10134000EF01DF01F801DBCF21153105F9F0281B92
:10135000390B2430310580F48A819B816115710538
:1013600021F0FB019383828304C090935302809306
:101370005202FE01329644C0FE01E20FF31F819338
:10138000919322503109398328833AC02091500229
:1013900030915102232B41F420910201309103013D
:1013A00030935102209350022091000130910101AD
:1013B0002115310541F42DB73EB7409104015091FC
:1013C0000501241B350BE0915002F0915102E21708
:1013D000F307A0F42E1B3F0B2817390778F0AC0158
:1013E0004E5F5F4F2417350748F04E0F5F1F509335
:1013F0005102409350028193919302C0E0E0F0E0EB
:10140000CF01DF91CF911F910F910895CF93DF937B
:10141000009709F481C0FC01329713821282A091D7
:101420005202B0915302109781F420813181820FD2
:10143000931F20915002309151022817390751F51E
:10144000F0935102E093500267C0ED0120E030E0DC
:10145000CE17DF0740F44A815B819E01411551059B
:10146000F1F0EA01F5CFD383C28340815181840F2B
:10147000951FC817D90759F488819981840F951F42
:101480000296918380838A819B8193838283211535
:10149000310529F4F0935302E09352023DC0E90173
:1014A000FB83EA8349915991C40FD51FEC17FD07BF
:1014B00061F480819181840F951F0296E9019983DF
:1014C0008883828193819B838A83E0E0F0E0129697
:1014D0008D919C911397009719F0FD01DC01F7CFD6
:1014E0008D919C9111979D012E5F3F4F820F931F0D
:1014F00020915002309151022817390769F4309732
:1015000029F4109253021092520202C013821282E6
:10151000B0935102A0935002DF91CF910895A0E0C3
:10152000B0E0E5E9FAE00C94F808EC01009721F44A
:10153000CB010E946E09B4C0FC01E60FF71F9C01AD
:1015400022503109E217F30708F4A8C0D9010D9120
:101550001C91119706171707B0F00530110508F414
:101560009BC0C80104978617970708F495C00250DE
:101570001109061B170B019311936D937C93CF01F7
:101580000E94060A89C05B01A01AB10A4C01800EB4
:10159000911EA0915202B0915302612C712CE12C4A
:1015A000F12C109709F446C08D919C911197A815C4
:1015B000B905B1F56C0142E0C40ED11CCA14DB04BC
:1015C00078F14C018A189B08640142E0C40ED11CDA
:1015D0001296BC9012971396AC91B5E0CB16D1043D
:1015E00040F0B282A38391828082D9016D937C9373
:1015F00009C00E5F1F4F800F911FF90191838083F7
:10160000EB2DFA2FE114F10431F0D7011396FC937E
:10161000EE93129741C0F0935302E09352023CC004
:101620006816790608F43C017D0112960D90BC9174
:10163000A02DB7CF80915002909151028816990643
:10164000E1F466167706C8F48091000190910101DB
:10165000009741F48DB79EB7409104015091050168
:10166000841B950BE817F907C8F4F0935102E09337
:101670005002F901718360830FC0CB010E946E0993
:101680007C01009759F0A801BE010E945A0BCE01BF
:101690000E94060AC70104C0CE0102C080E090E0AB
:1016A000CDB7DEB7EEE00C94140981E090E0F89439
:1016B0000C94730BFB01DC0102C001900D924150B0
:1016C0005040D8F70895FB01DC018D9101908019FD
:1016D0000110D9F3990B0895FB01DC0101900D92E3
:1016E0000020E1F7089510E0CDE5D0E004C0FE0150
:1016F0000E9468092196CE35D107C9F7F894FFCF2B
:1017000000005402800000000000E60153017D014A
:101710003302AE018C01A00100000000AE035301B2
:10172000B503B40357656C636F6D6521004F504579
:101730004E00416363657373204772616E74656424
:101740002100434C4F53450041636365737320444C
:10175000656E696564210042594500425945210082
:00000001FF
